{
  "contractName": "Election",
  "abi": [
    {
      "constant": true,
      "inputs": [
        {
          "name": "",
          "type": "uint256"
        }
      ],
      "name": "candidates",
      "outputs": [
        {
          "name": "id",
          "type": "uint256"
        },
        {
          "name": "name",
          "type": "string"
        },
        {
          "name": "vote",
          "type": "uint256"
        }
      ],
      "payable": false,
      "stateMutability": "view",
      "type": "function"
    },
    {
      "constant": true,
      "inputs": [],
      "name": "candidateCount",
      "outputs": [
        {
          "name": "",
          "type": "uint256"
        }
      ],
      "payable": false,
      "stateMutability": "view",
      "type": "function"
    },
    {
      "inputs": [],
      "payable": false,
      "stateMutability": "nonpayable",
      "type": "constructor"
    },
    {
      "constant": false,
      "inputs": [
        {
          "name": "candidateId",
          "type": "uint256"
        }
      ],
      "name": "vote",
      "outputs": [],
      "payable": false,
      "stateMutability": "nonpayable",
      "type": "function"
    }
  ],
  "bytecode": "0x608060405234801561001057600080fd5b5061005e6040805190810160405280600681526020017f63616e64693100000000000000000000000000000000000000000000000000008152506100b0640100000000026401000000009004565b6100ab6040805190810160405280600681526020017f63616e64693200000000000000000000000000000000000000000000000000008152506100b0640100000000026401000000009004565b6101d1565b60026000815480929190600101919050555060606040519081016040528060025481526020018281526020016000815250600080600254815260200190815260200160002060008201518160000155602082015181600101908051906020019061011b92919061012c565b506040820151816002015590505050565b828054600181600116156101000203166002900490600052602060002090601f016020900481019282601f1061016d57805160ff191683800117855561019b565b8280016001018555821561019b579182015b8281111561019a57825182559160200191906001019061017f565b5b5090506101a891906101ac565b5090565b6101ce91905b808211156101ca5760008160009055506001016101b2565b5090565b90565b610351806101e06000396000f300608060405260043610610057576000357c0100000000000000000000000000000000000000000000000000000000900463ffffffff1680630121b93f1461005c5780633477ee2e14610089578063a9a981a31461013d575b600080fd5b34801561006857600080fd5b5061008760048036038101908080359060200190929190505050610168565b005b34801561009557600080fd5b506100b46004803603810190808035906020019092919050505061025d565b6040518084815260200180602001838152602001828103825284818151815260200191508051906020019080838360005b838110156101005780820151818401526020810190506100e5565b50505050905090810190601f16801561012d5780820380516001836020036101000a031916815260200191505b5094505050505060405180910390f35b34801561014957600080fd5b5061015261031f565b6040518082815260200191505060405180910390f35b600160003373ffffffffffffffffffffffffffffffffffffffff1673ffffffffffffffffffffffffffffffffffffffff16815260200190815260200160002060009054906101000a900460ff161515156101c157600080fd5b6000811180156101d357506002548111155b15156101de57600080fd5b60018060003373ffffffffffffffffffffffffffffffffffffffff1673ffffffffffffffffffffffffffffffffffffffff16815260200190815260200160002060006101000a81548160ff0219169083151502179055506000808281526020019081526020016000206002016000815480929190600101919050555050565b6000602052806000526040600020600091509050806000015490806001018054600181600116156101000203166002900480601f01602080910402602001604051908101604052809291908181526020018280546001816001161561010002031660029004801561030f5780601f106102e45761010080835404028352916020019161030f565b820191906000526020600020905b8154815290600101906020018083116102f257829003601f168201915b5050505050908060020154905083565b600254815600a165627a7a72305820092affd32d59ab6b832214913fe10114f4dbae66e1a6b9e4896f45e7f8c6d78c0029",
  "source": "pragma solidity ^0.4.19;\r\n\r\ncontract Election {\r\n\r\n\tstruct Candidate {\r\n\t\tuint id;\r\n\t\tstring name;\r\n\t\tuint vote;\r\n\t\t\r\n\t}\r\n\r\n\tmapping (uint => Candidate) public candidates;\r\n\tmapping (address => bool) voters;\r\n\t\r\n\tuint public candidateCount;\r\n\r\n\tconstructor() public {\r\n\t\t_addCandidate(\"candi1\");\r\n\t\t_addCandidate(\"candi2\");\r\n\t\t\r\n\t}\r\n\t\r\n\r\n\tfunction _addCandidate(string _name) private{\r\n\t\tcandidateCount ++;\r\n\t\tcandidates[candidateCount] = Candidate(candidateCount, _name, 0);\r\n\t}\r\n\r\n\tfunction vote(uint candidateId) public {\r\n\r\n\r\n\t\trequire(!voters[msg.sender]);\r\n\r\n\t\trequire(candidateId > 0 && candidateId <= candidateCount);\r\n\t\t\r\n\t\t\r\n\t\tvoters[msg.sender] = true;\r\n\t\tcandidates[candidateId].vote ++;\r\n\r\n\r\n\t\t\r\n\t}\r\n\t}\r\n\t",
  "sourcePath": "C:\\Users\\Adi\\election\\contracts\\Election.sol",
  "compiler": {
    "name": "solc",
    "version": "0.4.24+commit.e67f0147.Emscripten.clang"
  },
  "schemaVersion": "2.0.1",
  "updatedAt": "2018-11-12T18:07:54.891Z"
}